{
  "address": "0xBb3e2a673660C9437B7Cf3A2403b00A124869e08",
  "abi": [
    {
      "inputs": [
        {
          "internalType": "address",
          "name": "_token",
          "type": "address"
        }
      ],
      "stateMutability": "nonpayable",
      "type": "constructor"
    },
    {
      "anonymous": false,
      "inputs": [
        {
          "indexed": true,
          "internalType": "address",
          "name": "_address",
          "type": "address"
        },
        {
          "indexed": false,
          "internalType": "uint256",
          "name": "_amount",
          "type": "uint256"
        },
        {
          "indexed": false,
          "internalType": "uint256",
          "name": "_nonce",
          "type": "uint256"
        },
        {
          "indexed": false,
          "internalType": "bytes",
          "name": "signature",
          "type": "bytes"
        },
        {
          "indexed": false,
          "internalType": "enum TokenBridge.transferType",
          "name": "_type",
          "type": "uint8"
        }
      ],
      "name": "Transfer",
      "type": "event"
    },
    {
      "inputs": [
        {
          "internalType": "address",
          "name": "",
          "type": "address"
        }
      ],
      "name": "currentNonce",
      "outputs": [
        {
          "internalType": "uint256",
          "name": "",
          "type": "uint256"
        }
      ],
      "stateMutability": "view",
      "type": "function"
    },
    {
      "inputs": [
        {
          "internalType": "address",
          "name": "_address",
          "type": "address"
        }
      ],
      "name": "getCurrentNonce",
      "outputs": [
        {
          "internalType": "uint256",
          "name": "",
          "type": "uint256"
        }
      ],
      "stateMutability": "view",
      "type": "function"
    },
    {
      "inputs": [
        {
          "internalType": "address",
          "name": "_address",
          "type": "address"
        },
        {
          "internalType": "uint256",
          "name": "amount",
          "type": "uint256"
        }
      ],
      "name": "messageHash",
      "outputs": [
        {
          "internalType": "bytes32",
          "name": "",
          "type": "bytes32"
        }
      ],
      "stateMutability": "view",
      "type": "function"
    },
    {
      "inputs": [
        {
          "internalType": "address",
          "name": "",
          "type": "address"
        },
        {
          "internalType": "uint256",
          "name": "",
          "type": "uint256"
        }
      ],
      "name": "nonceInProgress",
      "outputs": [
        {
          "internalType": "bool",
          "name": "",
          "type": "bool"
        }
      ],
      "stateMutability": "view",
      "type": "function"
    },
    {
      "inputs": [
        {
          "internalType": "address",
          "name": "_address",
          "type": "address"
        },
        {
          "internalType": "uint256",
          "name": "_amount",
          "type": "uint256"
        },
        {
          "internalType": "bytes",
          "name": "signature",
          "type": "bytes"
        }
      ],
      "name": "receiveTokens",
      "outputs": [],
      "stateMutability": "nonpayable",
      "type": "function"
    },
    {
      "inputs": [
        {
          "internalType": "address",
          "name": "_address",
          "type": "address"
        },
        {
          "internalType": "uint256",
          "name": "_amount",
          "type": "uint256"
        },
        {
          "internalType": "bytes",
          "name": "signature",
          "type": "bytes"
        }
      ],
      "name": "sendTokens",
      "outputs": [],
      "stateMutability": "nonpayable",
      "type": "function"
    },
    {
      "inputs": [],
      "name": "token",
      "outputs": [
        {
          "internalType": "contract IERC20",
          "name": "",
          "type": "address"
        }
      ],
      "stateMutability": "view",
      "type": "function"
    }
  ],
  "transactionHash": "0x915faf706f77d8e5ca2d201d0bc9b6a4b8c048e714d41db4629e7ea3b1f8639a",
  "args": [
    "0x1D2C9e0F24A61aEBa81230A2747510814623Be05"
  ],
  "numDeployments": 1,
  "solcInputHash": "c1f7d7b6457f0266e849e3b0753a7d84",
  "bytecode": "0x60a06040523480156200001157600080fd5b506040516200154c3803806200154c8339818101604052810190620000379190620000dc565b8073ffffffffffffffffffffffffffffffffffffffff1660808173ffffffffffffffffffffffffffffffffffffffff1681525050506200010e565b600080fd5b600073ffffffffffffffffffffffffffffffffffffffff82169050919050565b6000620000a48262000077565b9050919050565b620000b68162000097565b8114620000c257600080fd5b50565b600081519050620000d681620000ab565b92915050565b600060208284031215620000f557620000f462000072565b5b60006200010584828501620000c5565b91505092915050565b608051611414620001386000396000818161029f015281816105ca015261074001526114146000f3fe608060405234801561001057600080fd5b506004361061007d5760003560e01c8063791922511161005b57806379192251146100fe5780638bc1e0761461012e578063dc1c6b9c1461014a578063fc0c546a1461017a5761007d565b806314fb5914146100825780634bc854911461009e5780636437ecfc146100ce575b600080fd5b61009c60048036038101906100979190610bb6565b610198565b005b6100b860048036038101906100b39190610c2a565b610400565b6040516100c59190610c83565b60405180910390f35b6100e860048036038101906100e39190610c9e565b610463565b6040516100f59190610cda565b60405180910390f35b61011860048036038101906101139190610c9e565b61047b565b6040516101259190610cda565b60405180910390f35b61014860048036038101906101439190610bb6565b6104c3565b005b610164600480360381019061015f9190610c2a565b61070f565b6040516101719190610d10565b60405180910390f35b61018261073e565b60405161018f9190610d8a565b60405180910390f35b60001515600160008673ffffffffffffffffffffffffffffffffffffffff1673ffffffffffffffffffffffffffffffffffffffff16815260200190815260200160002060006101e68761047b565b815260200190815260200160002060009054906101000a900460ff16151514610244576040517f08c379a000000000000000000000000000000000000000000000000000000000815260040161023b90610e28565b60405180910390fd5b60006102508585610400565b905061025e85828585610762565b61029d576040517f08c379a000000000000000000000000000000000000000000000000000000000815260040161029490610eba565b60405180910390fd5b7f000000000000000000000000000000000000000000000000000000000000000073ffffffffffffffffffffffffffffffffffffffff166374f4f54733866040518363ffffffff1660e01b81526004016102f8929190610ee9565b600060405180830381600087803b15801561031257600080fd5b505af1158015610326573d6000803e3d6000fd5b5050505060018060008773ffffffffffffffffffffffffffffffffffffffff1673ffffffffffffffffffffffffffffffffffffffff16815260200190815260200160002060006103758861047b565b815260200190815260200160002060006101000a81548160ff0219169083151502179055508473ffffffffffffffffffffffffffffffffffffffff167f56f9e9c4e1284ef63fff9b478d652efa6ffa0f0902f5ce00d1f0a49eb90cfb0d856103dc8861047b565b868660006040516103f1959493929190610fe7565b60405180910390a25050505050565b6000828261040d8561047b565b60405160200161041f93929190611035565b6040516020818303038152906040528051906020012060405160200161044591906110e4565b60405160208183030381529060405280519060200120905092915050565b60006020528060005260406000206000915090505481565b60008060008373ffffffffffffffffffffffffffffffffffffffff1673ffffffffffffffffffffffffffffffffffffffff168152602001908152602001600020549050919050565b60011515600160008673ffffffffffffffffffffffffffffffffffffffff1673ffffffffffffffffffffffffffffffffffffffff16815260200190815260200160002060006105118761047b565b815260200190815260200160002060009054906101000a900460ff1615151461056f576040517f08c379a00000000000000000000000000000000000000000000000000000000081526004016105669061117c565b60405180910390fd5b600061057b8585610400565b905061058985828585610762565b6105c8576040517f08c379a00000000000000000000000000000000000000000000000000000000081526004016105bf90610eba565b60405180910390fd5b7f000000000000000000000000000000000000000000000000000000000000000073ffffffffffffffffffffffffffffffffffffffff16638c2a993e33866040518363ffffffff1660e01b8152600401610623929190610ee9565b600060405180830381600087803b15801561063d57600080fd5b505af1158015610651573d6000803e3d6000fd5b505050508473ffffffffffffffffffffffffffffffffffffffff167f56f9e9c4e1284ef63fff9b478d652efa6ffa0f0902f5ce00d1f0a49eb90cfb0d856106978861047b565b868660016040516106ac959493929190610fe7565b60405180910390a26000808673ffffffffffffffffffffffffffffffffffffffff1673ffffffffffffffffffffffffffffffffffffffff1681526020019081526020016000206000815480929190610703906111cb565b91905055505050505050565b60016020528160005260406000206020528060005260406000206000915091509054906101000a900460ff1681565b7f000000000000000000000000000000000000000000000000000000000000000081565b60006107bb83838080601f016020809104026020016040519081016040528093929190818152602001838380828437600081840152601f19601f82011690508083019250505050505050856107f390919063ffffffff16565b73ffffffffffffffffffffffffffffffffffffffff168573ffffffffffffffffffffffffffffffffffffffff16149050949350505050565b6000806000610802858561081a565b9150915061080f8161086b565b819250505092915050565b600080604183510361085b5760008060006020860151925060408601519150606086015160001a905061084f878285856109d1565b94509450505050610864565b60006002915091505b9250929050565b6000600481111561087f5761087e610f70565b5b81600481111561089257610891610f70565b5b03156109ce57600160048111156108ac576108ab610f70565b5b8160048111156108bf576108be610f70565b5b036108ff576040517f08c379a00000000000000000000000000000000000000000000000000000000081526004016108f69061125f565b60405180910390fd5b6002600481111561091357610912610f70565b5b81600481111561092657610925610f70565b5b03610966576040517f08c379a000000000000000000000000000000000000000000000000000000000815260040161095d906112cb565b60405180910390fd5b6003600481111561097a57610979610f70565b5b81600481111561098d5761098c610f70565b5b036109cd576040517f08c379a00000000000000000000000000000000000000000000000000000000081526004016109c49061135d565b60405180910390fd5b5b50565b6000807f7fffffffffffffffffffffffffffffff5d576e7357a4501ddfe92f46681b20a08360001c1115610a0c576000600391509150610aaa565b600060018787878760405160008152602001604052604051610a319493929190611399565b6020604051602081039080840390855afa158015610a53573d6000803e3d6000fd5b505050602060405103519050600073ffffffffffffffffffffffffffffffffffffffff168173ffffffffffffffffffffffffffffffffffffffff1603610aa157600060019250925050610aaa565b80600092509250505b94509492505050565b600080fd5b600080fd5b600073ffffffffffffffffffffffffffffffffffffffff82169050919050565b6000610ae882610abd565b9050919050565b610af881610add565b8114610b0357600080fd5b50565b600081359050610b1581610aef565b92915050565b6000819050919050565b610b2e81610b1b565b8114610b3957600080fd5b50565b600081359050610b4b81610b25565b92915050565b600080fd5b600080fd5b600080fd5b60008083601f840112610b7657610b75610b51565b5b8235905067ffffffffffffffff811115610b9357610b92610b56565b5b602083019150836001820283011115610baf57610bae610b5b565b5b9250929050565b60008060008060608587031215610bd057610bcf610ab3565b5b6000610bde87828801610b06565b9450506020610bef87828801610b3c565b935050604085013567ffffffffffffffff811115610c1057610c0f610ab8565b5b610c1c87828801610b60565b925092505092959194509250565b60008060408385031215610c4157610c40610ab3565b5b6000610c4f85828601610b06565b9250506020610c6085828601610b3c565b9150509250929050565b6000819050919050565b610c7d81610c6a565b82525050565b6000602082019050610c986000830184610c74565b92915050565b600060208284031215610cb457610cb3610ab3565b5b6000610cc284828501610b06565b91505092915050565b610cd481610b1b565b82525050565b6000602082019050610cef6000830184610ccb565b92915050565b60008115159050919050565b610d0a81610cf5565b82525050565b6000602082019050610d256000830184610d01565b92915050565b6000819050919050565b6000610d50610d4b610d4684610abd565b610d2b565b610abd565b9050919050565b6000610d6282610d35565b9050919050565b6000610d7482610d57565b9050919050565b610d8481610d69565b82525050565b6000602082019050610d9f6000830184610d7b565b92915050565b600082825260208201905092915050565b7f5472616e73616374696f6e206861736e2774206265656e20636f6d706c65746560008201527f6420796574000000000000000000000000000000000000000000000000000000602082015250565b6000610e12602583610da5565b9150610e1d82610db6565b604082019050919050565b60006020820190508181036000830152610e4181610e05565b9050919050565b7f54686973207472616e73616374696f6e20776173206e6f74207665726966696560008201527f6400000000000000000000000000000000000000000000000000000000000000602082015250565b6000610ea4602183610da5565b9150610eaf82610e48565b604082019050919050565b60006020820190508181036000830152610ed381610e97565b9050919050565b610ee381610add565b82525050565b6000604082019050610efe6000830185610eda565b610f0b6020830184610ccb565b9392505050565b600082825260208201905092915050565b82818337600083830152505050565b6000601f19601f8301169050919050565b6000610f4f8385610f12565b9350610f5c838584610f23565b610f6583610f32565b840190509392505050565b7f4e487b7100000000000000000000000000000000000000000000000000000000600052602160045260246000fd5b60028110610fb057610faf610f70565b5b50565b6000819050610fc182610f9f565b919050565b6000610fd182610fb3565b9050919050565b610fe181610fc6565b82525050565b6000608082019050610ffc6000830188610ccb565b6110096020830187610ccb565b818103604083015261101c818587610f43565b905061102b6060830184610fd8565b9695505050505050565b600060608201905061104a6000830186610eda565b6110576020830185610ccb565b6110646040830184610ccb565b949350505050565b600081905092915050565b7f1901000000000000000000000000000000000000000000000000000000000000600082015250565b60006110ad60028361106c565b91506110b882611077565b600282019050919050565b6000819050919050565b6110de6110d982610c6a565b6110c3565b82525050565b60006110ef826110a0565b91506110fb82846110cd565b60208201915081905092915050565b7f5468652061646472657373206861736e27742073656e7420616e7920746f6b6560008201527f6e73000000000000000000000000000000000000000000000000000000000000602082015250565b6000611166602283610da5565b91506111718261110a565b604082019050919050565b6000602082019050818103600083015261119581611159565b9050919050565b7f4e487b7100000000000000000000000000000000000000000000000000000000600052601160045260246000fd5b60006111d682610b1b565b91507fffffffffffffffffffffffffffffffffffffffffffffffffffffffffffffffff82036112085761120761119c565b5b600182019050919050565b7f45434453413a20696e76616c6964207369676e61747572650000000000000000600082015250565b6000611249601883610da5565b915061125482611213565b602082019050919050565b600060208201905081810360008301526112788161123c565b9050919050565b7f45434453413a20696e76616c6964207369676e6174757265206c656e67746800600082015250565b60006112b5601f83610da5565b91506112c08261127f565b602082019050919050565b600060208201905081810360008301526112e4816112a8565b9050919050565b7f45434453413a20696e76616c6964207369676e6174757265202773272076616c60008201527f7565000000000000000000000000000000000000000000000000000000000000602082015250565b6000611347602283610da5565b9150611352826112eb565b604082019050919050565b600060208201905081810360008301526113768161133a565b9050919050565b600060ff82169050919050565b6113938161137d565b82525050565b60006080820190506113ae6000830187610c74565b6113bb602083018661138a565b6113c86040830185610c74565b6113d56060830184610c74565b9594505050505056fea264697066735822122092237861e58b50facfe233ce260d14493d6f2d3a1a960fd9fa1aa969678a234264736f6c63430008120033",
  "devdoc": {
    "kind": "dev",
    "methods": {},
    "version": 1
  },
  "userdoc": {
    "kind": "user",
    "methods": {},
    "version": 1
  },
  "storageLayout": {
    "storage": [
      {
        "astId": 2333,
        "contract": "contracts/Bridge.sol:TokenBridge",
        "label": "currentNonce",
        "offset": 0,
        "slot": "0",
        "type": "t_mapping(t_address,t_uint256)"
      },
      {
        "astId": 2339,
        "contract": "contracts/Bridge.sol:TokenBridge",
        "label": "nonceInProgress",
        "offset": 0,
        "slot": "1",
        "type": "t_mapping(t_address,t_mapping(t_uint256,t_bool))"
      }
    ],
    "types": {
      "t_address": {
        "encoding": "inplace",
        "label": "address",
        "numberOfBytes": "20"
      },
      "t_bool": {
        "encoding": "inplace",
        "label": "bool",
        "numberOfBytes": "1"
      },
      "t_mapping(t_address,t_mapping(t_uint256,t_bool))": {
        "encoding": "mapping",
        "key": "t_address",
        "label": "mapping(address => mapping(uint256 => bool))",
        "numberOfBytes": "32",
        "value": "t_mapping(t_uint256,t_bool)"
      },
      "t_mapping(t_address,t_uint256)": {
        "encoding": "mapping",
        "key": "t_address",
        "label": "mapping(address => uint256)",
        "numberOfBytes": "32",
        "value": "t_uint256"
      },
      "t_mapping(t_uint256,t_bool)": {
        "encoding": "mapping",
        "key": "t_uint256",
        "label": "mapping(uint256 => bool)",
        "numberOfBytes": "32",
        "value": "t_bool"
      },
      "t_uint256": {
        "encoding": "inplace",
        "label": "uint256",
        "numberOfBytes": "32"
      }
    }
  }
}